:020000040800F2
:1040000068060020354200083D4200083F42000893
:1040100041420008434200084542000800000000F9
:1040200000000000000000000000000047420008FF
:1040300049420008000000004B42000851440008BB
:104040004F4200084F4200084F4200084F4200080C
:104050004F4200084F4200084F4200084F420008FC
:104060004F4200084F4200084F4200084F420008EC
:104070004F4200084F4200084F4200084F420008DC
:104080004F4200084F4200084F4200080000000065
:104090000000000000000000000000004F42000887
:1040A0004F4200084F4200084F4200084F420008AC
:1040B0004F4200084F4200084F4200084F4200089C
:1040C0004F4200084F4200084F4200084F4200088C
:1040D0004F4200084F4200084F4200080000000015
:1040E0004F4200084F4200084F4200080000000005
:1040F0000000000000000000000000004F42000827
:10410000000000004F4200084F4200084F420008E4
:10411000000000000000000000000000000000009F
:104120004F4200084F4200084F4200084F4200082B
:104130004F420008000000000000000000000000E6
:104140000000000000000000000000004F420008D6
:104150004F4200084F4200084F4200084F420008FB
:104160004F4200084F42000800000000000000001D
:10417000000000000000000000000000000000003F
:10418000000000004F420008000000000000000096
:104190004F42000800F002F800F03CF80AA090E856
:1041A000000C82448344AAF10107DA4501D100F0F2
:1041B00031F8AFF2090EBAE80F0013F0010F18BF83
:1041C000FB1A43F0010318472805000048050000CA
:1041D000103A24BF78C878C1FAD8520724BF30C833
:1041E00030C144BF04680C60704700000023002405
:1041F00000250026103A28BF78C1FBD8520728BFF7
:1042000030C148BF0B6070471FB500F05FFA1FBD9B
:1042100010B510BD00F031F81146FFF7F5FF00F0C2
:1042200041FA00F04FF803B4FFF7F2FF03BC00F0CF
:1042300057F800000948804709480047FEE7FEE7B5
:10424000FEE7FEE7FEE7FEE7FEE7FEE7FEE7FEE746
:1042500004480549054A064B7047000031450008EF
:1042600095410008680000206806002068020020D0
:1042700068020020704770477047754600F02CF8C0
:10428000AE4605006946534620F00700854618B043
:1042900020B5FFF7DDFFBDE820404FF000064FF0EE
:1042A00000074FF000084FF0000B21F00701AC466B
:1042B000ACE8C009ACE8C009ACE8C009ACE8C0098A
:1042C0008D46704710B50446AFF300802046BDE828
:1042D0001040FFF7A8BF000000487047080000200A
:1042E00001491820ABBEFEE7260002007047F0B57A
:1042F0000A4600210023002400BF3DE0012505FA05
:1043000001F3156805EA03049C4234D105684F00A7
:104310000326BE40B543056015794E00B5400668DA
:10432000354305601579012D02D01579022D16D17E
:1043300085684F000326BE40B543856055794E0021
:10434000B540866835438560456801268E40B54393
:104350004560456896798E40B6B235434560C5687C
:104360004F000326BE40B543C560D5794E00B54029
:10437000C6683543C560491C1029BFD3F0BD000095
:104380001CB50121042000F017F84FF400500090F4
:1043900001208DF804008DF8050000208DF806003E
:1043A00069460248FFF7A3FF1CBD00000008024059
:1043B00042694A404261704729B1064A1268024385
:1043C000044B1A6004E0034A12688243014B1A60EE
:1043D00070470000303802401448006840F0010087
:1043E0001249086000201149083108600F48006830
:1043F0000F4908400D4908600E48091D08600E4825
:104400000A49843108600B481038091D08600748C4
:10441000006820F4802005490860002003490C3121
:10442000086002498C310860704700000038024083
:10443000FFFFF6EA10300024003000204FF0E020AB
:10444000806902490968C0EB0160704700000020E4
:1044500002480068401C01490860704700000020C5
:104460006FF07F404FF0E0214861072008617047FE
:1044700070B500200022022300240221274D2D6860
:1044800005F00C0020B1042806D0082834D107E03C
:10449000234D244E356033E0234D224E35602FE00E
:1044A0001E4D2D1F2D68C5F380541C4D2D1F2D68EA
:1044B00005F03F0154B11C4DB5FBF1F5174E361F09
:1044C0003668C6F3881605FB06F209E0144DB5FB05
:1044D000F1F5124E361F3668C6F3881605FB06F254
:1044E0000E4D2D1F2D68C5F301456D1C6B00B2FBF1
:1044F000F3F50C4E356003E0094D0A4E356000BF00
:1045000000BF064D2D68C5F30315084E705D054DBF
:104510002D68C540034E356070BD0000083802406C
:104520000024F4000400002040787D01D6460008F5
:104530001348006840F47000114908601148006891
:1045400040F001000F49086000200E490831086062
:104550000C4800680C4908400A4908600B48091DCE
:104560000860081F006820F48020091F08600020F0
:1045700004490C31086006480149803908607047D9
:1045800088ED00E000380240FFFFF6FE1030002406
:104590000040000808B5FFF71FFF002000903048DA
:1045A000006840F001002E4908600846006800F0ED
:1045B000020000900846006800F0020010B10120DF
:1045C000009001E0002000900098012847D1244885
:1045D0004030006840F08050214940310860214857
:1045E000006840F440401F4908601D4808300068DA
:1045F0001B49083108600846006840F40040086024
:104600000846006840F4A050086040F20570164962
:10461000086016481249091D0860081F006840F02C
:104620008070091F086000BF0D48006800F000702E
:104630000028F9D00A480830006820F00300084933
:10464000083108600846006840F00200086000BFBA
:1046500003480830006800F00C000828F8D108BDB5
:104660000038024000700040003C02400812000682
:1046700010B5044604E04FF47A7000F004F8641EAC
:10468000002CF8D110BD00B50246FFF7D7FE02EBB3
:10469000C20100EBC10300BFFFF7D0FE181A0028CB
:1046A000FADC00BDFFF776FFFFF7E2FEFFF7D8FE6A
:1046B000FFF766FE07E04FF400510348FFF778FE6E
:1046C0006420FFF7D5FFF6E7000802404FF0407086
:1046D000E1EE100A70470000000000000000010237
:1046E000030406070809000000000102030400009B
:1046F000104700080000002008000000D04100081A
:10470000184700080800002060060000EC4100087F
:08471000010000000024F40088
:040000050800419519
:00000001FF
