:020000040800F2
:10000000A82500203D02000845020008470200081C
:10001000490200084B0200084D02000800000000E1
:100020000000000000000000000000004F02000877
:10003000510200080000000053020008310B0008C4
:10004000570200085702000857020008570200082C
:10005000570200085702000857020008570200081C
:10006000570200085702000857020008570200080C
:1000700057020008570200085702000857020008FC
:10008000570200085702000857020008000000004D
:1000900000000000000000000000000057020008FF
:1000A00057020008570200085702000857020008CC
:1000B00057020008570200085702000857020008BC
:1000C00057020008570200085702000857020008AC
:1000D00057020008390E000857020008000000000F
:1000E00057020008570200085702000800000000ED
:1000F000000000000000000000000000570200089F
:1001000000000000570200085702000857020008CC
:1001100000000000000000000000000000000000DF
:10012000570200085702000857020008570200084B
:10013000570200080000000000000000000000005E
:10014000000000000000000000000000570200084E
:10015000570200085702000857020008570200081B
:1001600057020008570200080000000000000000CD
:10017000000000000000000000000000000000007F
:10018000000000005702000800000000000000000E
:100190005702000800F002F800F040F80AA090E8CA
:1001A000000C82448344AAF10107DA4501D100F032
:1001B00035F8AFF2090EBAE80F0013F0010F18BFBF
:1001C000FB1A43F001031847681200008812000070
:1001D000103A24BF78C878C1FAD8520724BF30C873
:1001E00030C144BF04680C60704700000023002445
:1001F00000250026103A28BF78C1FBD8520728BF37
:1002000030C148BF0B6070471FB501F0FFF89DE893
:10021000030000F0DBF81FBD10B510BD00F032F98F
:100220001146FFF7F1FF00F085FF00F050F903B42D
:10023000FFF7F2FF03BC00F081F900000948804796
:1002400009480047FEE7FEE7FEE7FEE7FEE7FEE7B8
:10025000FEE7FEE7FEE7FEE704480549054A064BD0
:1002600070470000110C000895010008A81F00202D
:10027000A8250020A8210020A821002070B506464E
:1002800000F088F8056806F10B0020F00704B4427E
:100290009CBF002070BD2B466A68BAB11068A042AE
:1002A00010D304F1080188423CBF5068586007D35E
:1002B0005168101941601168091B01605860146091
:1002C000101D70BD13465268002AE7D1214628460A
:1002D00000F068F80028DED170BD70B50446051F37
:1002E00000F058F80068002C14BF446870BD002C62
:1002F00018BFAC423CBF20466468F8D301680A18B6
:10030000AA4218BF456003D12A680546114401601E
:1003100028684119A1421CBF6C6070BD61686960AA
:1003200021680844286070BD10B5203AC0F00B80E9
:10033000B1E81850203AA0E81850B1E81850A0E8E9
:100340001850BFF4F5AF5FEA027C24BFB1E8185043
:10035000A0E8185044BF18C918C0BDE810405FEAB3
:10036000827C24BF51F8043B40F8043B08BF70472F
:10037000D20728BF31F8023B48BF11F8012B28BF34
:1003800020F8023B48BF00F8012B704770477047C8
:1003900070470000004870474C1F002070477047AE
:1003A0007047704738B504460A4600206946AFF3E7
:1003B0000080002808BF38BD02460099204600F0A2
:1003C0003FF8012038BD012000F054B8F8B5AFF374
:1003D0000080054600200C46102000BF0646A819E4
:1003E000A0420DD9324669460020AFF300800700D5
:1003F00008BF00F03FF80098A04218BF0546C41996
:10040000FFF7C8FF05600746F01D20F007004619FA
:10041000284600F00AF8B44208BFF8BDA21B3146D6
:100420003868BDE8F84000F00BB800210160C0E971
:10043000011070471020704700487047441F00208B
:10044000034640688C46002818BF88423CBF0346DC
:100450004068F8D318681844884207D00CF10300AC
:1004600020F00700001D411A521A0146081D0A60BB
:10047000FFF733BF10B500F039F8BDE8104000F0C9
:100480002FB870477546FFF7D7FFAE46050069469F
:10049000534620F00700854618B020B5FFF7DCFE74
:1004A000BDE820404FF000064FF000074FF0000875
:1004B0004FF0000B21F00701AC46ACE8C009ACE8F6
:1004C000C009ACE8C009ACE8C0098D46704710B55A
:1004D0000446AFF300802046BDE81040FFF7A7BEFA
:1004E000002801D000F02AB87047000010B501289C
:1004F00005D0002103A000F027F8012010BD09A1BC
:10050000F8E7000053494752544D454D3A204F7586
:1005100074206F662068656170206D656D6F7279FB
:10052000000000003A2048656170206D656D6F72B3
:100530007920636F727275707465640001491820C8
:10054000ABBEFEE72600020070B505460C460A2049
:1005500000E06D1C00F011F835B128780028F8D1C2
:1005600002E0641C00F009F814B120780028F8D1EA
:10057000BDE870400A20AFF3008008B569468DF8E9
:1005800000000320ABBE08BD1CB50121084600F0E9
:1005900033F92020009000208DF804008DF806002B
:1005A00001208DF807006946014800F003F81CBDE2
:1005B00000000240F0B50A4600210023002400BFDD
:1005C0003DE0012505FA01F3156805EA03049C42A4
:1005D00034D105684F000326BE40B5430560157948
:1005E0004E00B5400668354305601579012D02D0EF
:1005F0001579022D16D185684F000326BE40B543FC
:10060000856055794E00B5408668354385604568FC
:1006100001268E40B5434560456896798E40B6B256
:1006200035434560C5684F000326BE40B543C560ED
:10063000D5794E00B540C6683543C560491C1029C0
:10064000BFD3F0BD1CB50121042000F0D5F84FF454
:100650000050009001208DF804008DF80500002066
:100660008DF8060069460248FFF7A4FF1CBD000094
:1006700000080240F0B5002300244D07ED0E02FAF9
:1006800005F3CE1000F1200555F826504E07F70E61
:100690000F26BE40B543CF1000F1200646F8275084
:1006A000CE1000F1200555F8265045EA0304CE107F
:1006B00000F1200545F82640F0BD024600201369F0
:1006C0000B400BB1012000E00020704742694A4016
:1006D000426170471CB50121084600F08DF80722E1
:1006E00009211048FFF7C6FF07220A210D48FFF72E
:1006F000C1FF02208DF804008DF8050000208DF860
:10070000060001208DF80700400200906946054868
:10071000FFF750FF4FF48060009069460148FFF7F3
:1007200049FF1CBD000002400AB1018300E0418383
:100730007047000070B5002100230F22C4781CB35D
:10074000174C246804F4E064C4F5E064C4F30721A2
:10075000C1F10404E3B20A4144789C40E1B28478D8
:10076000144021430C07210E0E4C05786155047886
:1007700004F01F050124AC4005786D11AD0005F1B2
:10078000E025C5F8004109E0047804F01F050124C4
:10079000AC40054D0678761145F8264070BD000046
:1007A0000CED00E000E400E080E100E0024A0A40D5
:1007B0000243024B1A60704780FFFF1F08ED00E004
:1007C00008B525208DF8000001208DF803000020D9
:1007D0008DF801008DF802006846FFF7ABFF252079
:1007E00000F01F02012191404209920002F1E02233
:1007F000C2F8001100BF08BD29B1064A12680243C1
:10080000044B1A6004E0034A12688243014B1A60E9
:10081000704700003038024029B1064A126802438E
:10082000044B1A6004E0034A12688243014B1A60C9
:1008300070470000443802401448006840F001004E
:100840001249086000201149083108600F4800680B
:100850000F4908400D4908600E48091D08600E4800
:100860000A49843108600B481038091D08600748A0
:10087000006820F4802005490860002003490C31FD
:10088000086002498C31086070470000003802405F
:10089000FFFFF6EA1030002400300020F0B5002100
:1008A00000220024022500260223324F3F6807F071
:1008B0000C0121B1042905D0082937D105E02E4FBC
:1008C000076036E02D4F076033E02A4F3F1F3F6837
:1008D000C7F38056274F3F1F3F6807F03F036EB1B5
:1008E000264FB7FBF3F7DFF88CC0ACF1040CDCF853
:1008F00000C0CCF3881C07FB0CF40CE01E4FB7FBC8
:10090000F3F7DFF870C0ACF1040CDCF800C0CCF3F6
:10091000881C07FB0CF4174F3F1F3F68C7F30147C4
:100920007F1C7D00B4FBF5F7076002E0124F076003
:1009300000BF00BF0F4F3F6807F0F0010909104FDB
:100940007A5C0768D74047600A4F3F6807F4E05178
:10095000890A0B4F7A5C4768D7408760054F3F682C
:1009600007F46041490B064F7A5C4768D740C7607F
:10097000F0BD0000083802400024F40040787D01FA
:10098000200000202DE9F04704460E464FF00008F5
:10099000B2465046FFF772FC0546C14600202BE0E8
:1009A000215C302906DB215C392903DC215C3039EC
:1009B000295408E0215C412905DB215C462902DC41
:1009C000215C37392954014600EBD1725210A0EB5B
:1009D000420282B12B5C421EAA5C43EA0212D1B2EF
:1009E0004FEAC90308FA03F242EA010809F10102D9
:1009F00002F0FF0900BF401CB042D1DB1FFA88F7AC
:100A00002846FFF76AFC3846BDE8F0872DE9F04735
:100A100004460E464FF00008B2465046FFF72EFC43
:100A20000546C14600202BE0215C302906DB215C15
:100A3000392903DC215C3039295408E0215C412943
:100A400005DB215C462902DC215C3739295401464B
:100A500000EBD1725210A0EB420282B12B5C421E1D
:100A6000AA5C43EA0212D1B24FEAC90201FA02F2C9
:100A700042EA080809F1010202F0FF0900BF401C28
:100A8000B042D1DB47462846FFF727FC3846BDE891
:100A9000F0872DE9F04704460E464FF00008B246B5
:100AA0005046FFF7EBFB0546C14600202BE0215CDA
:100AB000302906DB215C392903DC215C30392954DB
:100AC00008E0215C412905DB215C462902DC215C30
:100AD00037392954014600EBD1725210A0EB420283
:100AE00082B12B5C421EAA5C43EA0212D1B24FEAE9
:100AF000C90201FA02F242EA080809F1010202F011
:100B0000FF0900BF401CB042D1DB08F0FF072846B8
:100B1000FFF7E3FB3846BDE8F08700004FF0E02028
:100B2000806902490968C0EB01607047000000203D
:100B300002480068401C014908607047000000201E
:100B40006FF07F404FF0E021486107200861704757
:100B500070B500200022022300240221274D2D68B9
:100B600005F00C0020B1042806D0082834D107E095
:100B7000234D244E356033E0234D224E35602FE067
:100B80001E4D2D1F2D68C5F380541C4D2D1F2D6843
:100B900005F03F0154B11C4DB5FBF1F5174E361F62
:100BA0003668C6F3881605FB06F209E0144DB5FB5E
:100BB000F1F5124E361F3668C6F3881605FB06F2AD
:100BC0000E4D2D1F2D68C5F301456D1C6B00B2FB4A
:100BD000F3F50C4E356003E0094D0A4E356000BF59
:100BE00000BF064D2D68C5F30315084E705D054D19
:100BF0002D68C540034E356070BD000008380240C6
:100C00000024F4003000002040787D011614000814
:100C10001448006840F470001249086012480068E7
:100C200040F001001049086000200F4908310860B9
:100C30000D4800680D4908400B4908600C48091D23
:100C40000860081F006820F48020091F0860002049
:100C500005490C3108604FF0006002498039086096
:100C60007047000088ED00E000380240FFFFF6FE0C
:100C70001030002408B5FFF7DFFD00200090304859
:100C8000006840F001002E4908600846006800F046
:100C9000020000900846006800F0020010B1012038
:100CA000009001E0002000900098012847D12448DE
:100CB0004030006840F080502149403108602148B0
:100CC000006840F440401F4908601D480830006833
:100CD0001B49083108600846006840F4004008607D
:100CE0000846006840F4A050086040F205701649BC
:100CF000086016481249091D0860081F006840F086
:100D00008070091F086000BF0D48006800F0007087
:100D10000028F9D00A480830006820F0030008498C
:100D2000083108600846006840F00200086000BF13
:100D300003480830006800F00C000828F8D108BD0E
:100D40000038024000700040003C024008120006DB
:100D50000348007803490978401AC0B27047000080
:100D6000180000201C0000201FB501211020FFF7F3
:100D700053FD4FF4165000900020ADF80400ADF87C
:100D80000600ADF80800ADF80C000C20ADF80A0024
:100D90006946074800F0AAF8012240F225510448AC
:100DA00000F07FF80121024800F062F81FBD00004A
:100DB0000010014010B5FFF78DFCFFF7D5FFFFF7DE
:100DC000FFFC10BD0C4800680C490968884202D13C
:100DD0004FF0FF3070470A48084A1268815C074AA2
:100DE0001268501CC21700EB12621212A0EB022212
:100DF000024B1A600846EDE7180000201C00002096
:100E0000441E002010B504460448848000BF8021A1
:100E1000024800F039F80028F9D010BD0010014058
:100E200010B5044603E02078FFF7ECFF641C20783F
:100E30000028F8D110BD000010B50A4800F0C0F835
:100E4000C4B2094809490968445408490968481C5A
:100E5000C11700EB11610912A0EB0121034A1160D7
:100E600010BD000000100140441E002018000020AA
:100E700021B1828942F40052828104E082894DF6D8
:100E8000FF731A408281704702460020B1F5007F4F
:100E900000D100BF13880B400BB1012000E00020FF
:100EA0007047F0B50346002400260025002040F6D8
:100EB0006A17B94200D100BF1846C1F3421401F0CD
:100EC0001F06012707FA06F5012C01D10C3004E0BA
:100ED000022C01D1103000E014301AB107682F4302
:100EE000076002E00768AF430760F0BD2DE9FF47E8
:100EF00005460E460024A14600BFA046B08900B1B9
:100F000000BF2C8A24F44054F08804432C82AC891E
:100F100041F20C608443B0883189084371890843E9
:100F20000443AC81AC8A24F44074B0890443AC829D
:100F30006846FFF7B3FC2048854202D01F4885422F
:100F400002D1DDF80C9001E0DDF80890A88900F4EA
:100F5000004040B109EBC90000EB091031684900BD
:100F6000B0FBF1F707E009EBC90000EB09103168AD
:100F70008900B0FBF1F76420B7FBF0F00401200911
:100F8000642101FB1078A88900F4004040B13220B0
:100F900000EBC800B0FBF1F000F00700044308E0EC
:100FA000322000EB08106421B0FBF1F000F00F00DC
:100FB00004432C81BDE8FF8700100140001401406C
:100FC00001468888C0F30800704710B5044604E065
:100FD0004FF47A7000F004F8641E002CF8D110BDB4
:100FE00000B50246FFF79AFD02EBC20100EBC10318
:100FF00000BFFFF793FD181A0028FADC00BD0000BF
:1010000000B5024600F02CF800BF0F48006800F45D
:1010100080300028F9D10C48001D006842F0020120
:1010200008430949091D08600846006840F48030FB
:10103000086000BF0448006800F480300028F9D13F
:1010400000F004F800BD00000C3C024003480068BA
:1010500040F000400149086070470000103C024029
:101060000548006800F0004028B1044802490C39E6
:101070000860034808607047103C02402301674540
:10108000AB89EFCD00B502460B46FFF7E9FF1248EA
:10109000006840F40070104908600846006840F09D
:1010A0000100086000BF0C48001F006800F4803099
:1010B0000028F8D1136000BF0748001F006800F443
:1010C00080300028F8D10448006820F0010002496F
:1010D0000860FFF7BBFF00BD103C02400FB42DE9D4
:1010E000F04106460F4600249DF820100998084458
:1010F000BDF82810084400EB2120C4B24B9D06E047
:1011000070190221FFF7C5FC2044C4B2AD1C9DF844
:1011100020104B980844A842F2D8E043401CC4B2C7
:10112000BC4204D10120BDE8F0015DF814FB0020B1
:10113000F9E70000F0B5C3B0FFF79CFDFFF708FD2D
:10114000FFF7FEFCFFF77EFAFFF71EFAFFF732FE0D
:1011500020217748FFF7B1FAE0B176A0FFF760FEF3
:10116000012251037A48FFF7DFFA7A4840687A494A
:10117000086008460068794908604FF480414803D8
:10118000FFF714FB7349086880F3088800BF7348B1
:101190000068804772A0FFF743FE00224FF4005121
:1011A0006B48FFF7C1FAB9E00BE0FFF70BFEC1B2E5
:1011B0007248734A1268815471480068401C704933
:1011C0000860FFF7C5FD0028EFD16D480068401E9C
:1011D0006A49085C3C28E6D169480068401C6849B7
:1011E00008600820FFF70CFF4FF47A70FFF7EDFE60
:1011F00064A0FFF715FE69A0FFF712FE0026002489
:1012000077E0062E73D2DFE806F003091322334F8E
:101210005A48005D3A2800D1012668E0574908196C
:101220000221FFF736FC63490870641C02265EE069
:10123000524908190421FFF7A5FB5E4908810846B9
:10124000008940F000604860E41C03264FE04B49F1
:1012500008190221FFF71DFC564988720846807A5A
:10126000012802D154A0FFF7DBFD0426641C3EE0F8
:101270005048C0F80C41807AA0B900250EE03F49E3
:1012800008190821FFF7C2FB07464A49496848196F
:101290003946FFF7F7FE281DC5B2083445480078E7
:1012A000A842ECDC052622E0344908190221FFF7A8
:1012B000F0FB404981F80B014FF484720831684615
:1012C000FFF732F83B4A92F80B11D2F80C212B4B66
:1012D000D018384A0CCAFFF701FF28B93DA0FFF724
:1012E0009FFD002043B0F0BD0026641C00BF00BF7E
:1012F000641C23480068844283D33DA0FFF790FD1F
:10130000002408E04FF400511148FFF7DFF9642092
:10131000FFF75BFE641C0A2CF4DB00BF20210448AD
:10132000FFF7CBF900283FF43FAF00BFFEE7000016
:10133000000002403E3E204D6F646520203A20614F
:1013400070706C69636174696F6E200D0A00000033
:101350000008024000400008100000200C0000209F
:101360003E3E204D6F646520203A20426F6F746CC2
:101370006F61646572200D0A0000000034010020D6
:10138000140000203E3E2045726173652053656362
:10139000746F722031200D0A000000003E3E20577D
:1013A0007269746520746F20666C617368200D0A21
:1013B00000000000341D00203E3E203A206C6F618A
:1013C000642066696C65202E6865782020646F6EE5
:1013D000650D0A003E3E203A204572726F722072FF
:1013E0006561642066696C652E686578200D0A0069
:1013F0003E3E203A20577269746520746F20666CF7
:1014000061736820646F6E65200D0A004FF04070B4
:10141000E1EE100A70470000000000000000010229
:10142000030406070809000000000102030400008D
:10143000501400080000002034000000D001000813
:10144000841400083400002074250000EC0100081A
:10145000010000000000000000000000000000008B
:10146000000000000000000000000000000000007C
:10147000000000000102030401020304060708093A
:041480000024F40050
:040000050800019559
:00000001FF
